:03000000020800F3
:0C080000787FE4F6D8FD758113020847EC
:0C08D3000A0A3F065B4F666D7D07FF6759
:1008B600E4FFFEE4FDFC0DBD00010CBC03F8BDE841
:0C08C600F50FBF00010EEF64644E70E7F8
:0108D2002203
:10088C0075A08020A7FD740A2509F8E6F5A00509D6
:10089C00E50970020508C3940AE508648094804059
:0A08AC0005E4F508F509D2A780D98C
:10080C0002088CE493A3F8E493A34003F68001F26E
:10081C0008DFF48029E493A3F85407240CC8C333ED
:10082C00C4540F4420C8834004F456800146F6DFBC
:10083C00E4800B01020408102040809008D3E47E71
:10084C00019360BCA3FF543F30E509541FFEE493B1
:10085C00A360010ECF54C025E060A840B8E493A378
:10086C00FAE493A3F8E493A3C8C582C8CAC583CAA3
:10087C00F0A3C8C582C8CAC583CADFE9DEE780BE5B
:0108DF000018
:00000001FF
